{
  "contractName": "AAA",
  "abi": [
    {
      "inputs": [],
      "name": "a",
      "outputs": [
        {
          "internalType": "uint256",
          "name": "",
          "type": "uint256"
        }
      ],
      "stateMutability": "view",
      "type": "function",
      "constant": true
    },
    {
      "inputs": [
        {
          "internalType": "uint256",
          "name": "_a",
          "type": "uint256"
        }
      ],
      "name": "setA",
      "outputs": [],
      "stateMutability": "nonpayable",
      "type": "function"
    },
    {
      "inputs": [
        {
          "internalType": "uint256",
          "name": "_a",
          "type": "uint256"
        },
        {
          "internalType": "uint256",
          "name": "_b",
          "type": "uint256"
        }
      ],
      "name": "add",
      "outputs": [
        {
          "internalType": "uint256",
          "name": "",
          "type": "uint256"
        }
      ],
      "stateMutability": "pure",
      "type": "function",
      "constant": true
    }
  ],
  "bytecode": "0x608060405260645f55348015610013575f80fd5b5061022e806100215f395ff3fe608060405234801561000f575f80fd5b506004361061003f575f3560e01c80630dbe671f14610043578063771602f714610061578063ee919d5014610091575b5f80fd5b61004b6100ad565b60405161005891906100e8565b60405180910390f35b61007b6004803603810190610076919061012f565b6100b2565b60405161008891906100e8565b60405180910390f35b6100ab60048036038101906100a6919061016d565b6100c7565b005b5f5481565b5f81836100bf91906101c5565b905092915050565b805f8190555050565b5f819050919050565b6100e2816100d0565b82525050565b5f6020820190506100fb5f8301846100d9565b92915050565b5f80fd5b61010e816100d0565b8114610118575f80fd5b50565b5f8135905061012981610105565b92915050565b5f806040838503121561014557610144610101565b5b5f6101528582860161011b565b92505060206101638582860161011b565b9150509250929050565b5f6020828403121561018257610181610101565b5b5f61018f8482850161011b565b91505092915050565b7f4e487b71000000000000000000000000000000000000000000000000000000005f52601160045260245ffd5b5f6101cf826100d0565b91506101da836100d0565b92508282019050808211156101f2576101f1610198565b5b9291505056fea2646970667358221220a1457c85de4031eccd7cbadc202152e6053d00864e131c5867dd5d474facba2764736f6c63430008140033",
  "immutableReferences": {},
  "source": "// SPDX-License-Identifier: MIT\npragma solidity ^0.8.19;\n\ncontract AAA {\n  uint public a = 100;\n\n  function setA(uint _a) public {\n    a = _a;\n  }\n\n  function add(uint _a, uint _b) public pure returns(uint) {\n    return _a+_b;\n  }\n}",
  "sourcePath": "/Users/youminha/dev/techit/blockchain/solidity/sol/0610/contracts/A.sol",
  "compiler": {
    "name": "solc",
    "version": "0.8.20+commit.a1b79de6.Emscripten.clang"
  },
  "schemaVersion": "3.4.14",
  "updatedAt": "2023-06-12T01:58:14.798Z",
  "networkType": "ethereum",
  "devdoc": {
    "kind": "dev",
    "methods": {},
    "version": 1
  },
  "userdoc": {
    "kind": "user",
    "methods": {},
    "version": 1
  }
}