{
  "contractName": "A",
  "abi": [
    {
      "inputs": [],
      "name": "a",
      "outputs": [
        {
          "internalType": "uint256",
          "name": "",
          "type": "uint256"
        }
      ],
      "stateMutability": "view",
      "type": "function",
      "constant": true
    },
    {
      "inputs": [
        {
          "internalType": "uint256",
          "name": "_a",
          "type": "uint256"
        }
      ],
      "name": "setA",
      "outputs": [],
      "stateMutability": "nonpayable",
      "type": "function"
    },
    {
      "inputs": [
        {
          "internalType": "uint256",
          "name": "_a",
          "type": "uint256"
        },
        {
          "internalType": "uint256",
          "name": "_b",
          "type": "uint256"
        },
        {
          "internalType": "uint256",
          "name": "_c",
          "type": "uint256"
        }
      ],
      "name": "mul",
      "outputs": [
        {
          "internalType": "uint256",
          "name": "",
          "type": "uint256"
        }
      ],
      "stateMutability": "pure",
      "type": "function",
      "constant": true
    }
  ],
  "bytecode": "0x608060405234801561000f575f80fd5b5061025a8061001d5f395ff3fe608060405234801561000f575f80fd5b506004361061003f575f3560e01c80630dbe671f14610043578063e91cac2d14610061578063ee919d5014610091575b5f80fd5b61004b6100ad565b60405161005891906100f4565b60405180910390f35b61007b6004803603810190610076919061013b565b6100b2565b60405161008891906100f4565b60405180910390f35b6100ab60048036038101906100a6919061018b565b6100d3565b005b5f5481565b5f8183856100c091906101e3565b6100ca91906101e3565b90509392505050565b805f8190555050565b5f819050919050565b6100ee816100dc565b82525050565b5f6020820190506101075f8301846100e5565b92915050565b5f80fd5b61011a816100dc565b8114610124575f80fd5b50565b5f8135905061013581610111565b92915050565b5f805f606084860312156101525761015161010d565b5b5f61015f86828701610127565b935050602061017086828701610127565b925050604061018186828701610127565b9150509250925092565b5f602082840312156101a05761019f61010d565b5b5f6101ad84828501610127565b91505092915050565b7f4e487b71000000000000000000000000000000000000000000000000000000005f52601160045260245ffd5b5f6101ed826100dc565b91506101f8836100dc565b9250828202610206816100dc565b9150828204841483151761021d5761021c6101b6565b5b509291505056fea2646970667358221220138a8bc597d8045f18024141883231a580767bb7762cbe3d0eac8ce140d109ca64736f6c63430008140033",
  "immutableReferences": {},
  "source": "// SPDX-License-Identifier: MIT\npragma solidity >=0.4.22 <0.9.0;\n\ncontract A {\n  \n  uint public a ;\n\n  function setA(uint _a) public {\n    a = _a;\n  }\n\n  function mul (uint _a, uint _b, uint _c) public pure returns(uint) {\n    return _a*_b*_c;\n  }\n}\n",
  "sourcePath": "/Users/youminha/dev/techit/blockchain/solidity/sol/0612/contracts/A.sol",
  "compiler": {
    "name": "solc",
    "version": "0.8.20+commit.a1b79de6.Emscripten.clang"
  },
  "schemaVersion": "3.4.14",
  "updatedAt": "2023-06-12T02:16:02.012Z",
  "networkType": "ethereum",
  "devdoc": {
    "kind": "dev",
    "methods": {},
    "version": 1
  },
  "userdoc": {
    "kind": "user",
    "methods": {},
    "version": 1
  }
}